:020000040800F2
:10000000C015002085020008E5020008E50200088E
:10001000E5020008E5020008E50200080000000013
:10002000000000000000000000000000E5020008E1
:10003000E502000800000000E5020008E5020008F3
:10004000E5020008E5020008E5020008E5020008F4
:10005000E5020008E5020008E5020008E5020008E4
:10006000E5020008E5020008E5020008E5020008D4
:10007000E5020008E5020008E5020008E5020008C4
:10008000E5020008E5020008E5020008E5020008B4
:10009000E5020008E5020008E5020008E5020008A4
:1000A000E5020008E5020008E5020008E502000894
:1000B000E5020008E5020008E5020008E502000884
:1000C000E5020008E5020008E5020008E502000874
:1000D000E5020008E5020008E5020008E502000864
:1000E000E5020008E5020008E5020008E502000854
:1000F000E5020008E5020008E5020008E502000844
:10010000E5020008E5020008E5020008E502000833
:10011000E5020008E5020008E5020008E502000823
:10012000E5020008E5020008E5020008E502000813
:100130005FF808F180B500AF174B1B68164A43F013
:1001400001031360144B5A681349144B13404B605E
:10015000114B1B68104A23F0847323F4803313601F
:100160000D4B1B680C4A23F4802313600A4B5B6819
:10017000094A23F4FE035360074B4FF41F029A60B1
:10018000054B0022DA6200F00DF8054B4FF00062DB
:100190009A6000BF80BD00BF001002400000FFF861
:1001A00000ED00E080B500AF00F002F800BF80BDB8
:1001B00080B483B000AF00237B6000233B60304BF2
:1001C0001B682F4A43F4803313602D4B1B6803F4E4
:1001D00000333B607B6801337B603B68002B03D1BD
:1001E0007B68B3F5A06FF0D1254B1B6803F4003397
:1001F000002B02D001233B6001E000233B603B6801
:10020000012B37D11E4B1E4A5B6853601C4B1C4AA6
:100210005B6853601A4B1A4A5B685360184B5B6803
:10022000174A23F47C135360154B5B68144A43F45C
:1002300098135360124B1B68114A43F0807313608C
:1002400000BF0F4B1B6803F00073002BF9D00C4B61
:100250005B680B4A23F003035360094B5B68084A51
:1002600043F00203536000BF054B5B6803F00C03CF
:10027000082BF9D100BF0C37BD4680BC704700BFCA
:100280000010024080B582B000AF114B7B60114B73
:100290003B6007E07A68131D7B603B68191D39607D
:1002A00012681A603B680C4A9342F3D30B480C491E
:1002B0004FF000028842B8BF40F8042BFADBFFF78A
:1002C00039FF00F0C7FB00BF0837BD4680BD00BF47
:1002D00010ED000800000020400800204008002029
:1002E000BC11002080B400AFFEE780B489B000AF3D
:1002F000786039600023FB6100233B610023BB6110
:100300000023FB6000237B610023BB603B68DB783C
:1003100003F00F03FB613B68DB7803F01003002B55
:1003200005D03B689B781A46FB691343FB613B6829
:100330001B88DBB2002B44D07B681B687B610023E9
:10034000BB6138E00122BB6902FA03F3FB603B6842
:100350001B881A46FB6813403B613A69FB689A4266
:1003600026D1BB699B00FB600F22FB6802FA03F3F6
:10037000BB60BB68DB437A6913407B61FA69FB6849
:1003800002FA03F37A6913437B613B68DB78282B1D
:1003900005D10122BB699A407B685A6108E03B683D
:1003A000DB78482B04D10122BB699A407B681A6133
:1003B000BB690133BB61BB69072BC3D97B687A6911
:1003C0001A603B681B88FF2B46D97B685B687B61A2
:1003D0000023BB613AE0BB690833012202FA03F350
:1003E000FB603B681B881A46FB6813403B613A6917
:1003F000FB689A4227D1BB699B00FB600F22FB6818
:1004000002FA03F3BB60BB68DB437A6913407B618C
:10041000FA69FB6802FA03F37A6913437B613B686C
:10042000DB78282B05D1BB69083301229A407B6811
:100430005A613B68DB78482B05D1BB690833012240
:100440009A407B681A61BB690133BB61BB69072BAA
:10045000C1D97B687A695A6000BF2437BD4680BC29
:10046000704780B483B000AF78600B467B80134642
:100470007B707B78002B03D07A887B681A6102E05E
:100480007A887B685A6100BF0C37BD4680BC7047D4
:10049000B0B588B000AFF860B9607A603B603B6B84
:1004A000013BBB6132E00023FB6128E0BB693A6895
:1004B00003FB02F2FB6913447A6B02FB03F31A4657
:1004C000FB6813447B61BA68FB69D4187A68BB691E
:1004D000D5187B691B7818467B6901331B78194650
:1004E0007B6902331B781A4603F04AFF03461A461B
:1004F0002946204603F05BFFFB690133FB61FA6983
:100500003B689A42D2DBBB69013BBB61BB69B3F17B
:10051000FF3FC8D100BF00BF2037BD46B0BD80B58A
:1005200086B000AFF8607A603B600B46FB723B68B8
:100530007B61FA7A7B6919687B695B68CB1A9342A5
:10054000A8BF13463B617B699B687A695268134474
:100550003A691946F86804F0F7F93B69DAB27B6842
:100560001A707B695B681A463B6913441A467B69BB
:100570005A60002318461837BD4680BD84B080B548
:100580009AB000AF07F1700C8CE80F0000237B6677
:1005900000233B663B6FBB627B6F7B62BB6F1A467F
:1005A000BB6A02FB03F33B62D7F88830DB10FB61C8
:1005B000D7F88C30DB10BB613B6A7A6A02FB03F32D
:1005C000184603F005FF03467B6103F05BFB03461F
:1005D000FB74FB7C002B08D0FB7C012B00F0FA8025
:1005E000786903F0FDFE0023F6E0D7F880303A6E1C
:1005F0009A4204DB786903F0F3FE0023ECE0D7F8BD
:100600008C303A6E02FB03F31A463B6A02FB03F39B
:10061000D7F88820796E01FB02F2B96F01FB02F274
:1006200013447A6913447B650023FB65BEE07A6F4F
:10063000D7F88C30396E03FB01F1FB6D0B44D31AF4
:10064000082BA8BF0823FB600023BB65A0E0BB6F9D
:10065000BA6D02FB03F31A467B6D13443B65FB6DD9
:100660005A00BB6D1344DB00BB60D7F89020BB6819
:100670001344FB64D7F89420BB681344BB64D7F8D9
:100680009820BB6813447B643A6FD7F88830796E42
:1006900003FB01F1BB6D0B44D31A082BA8BF082341
:1006A0007B6097F88430002B29D10023FB6321E085
:1006B0003B6DBB6300233B640AE0FA6C531CFB6494
:1006C000BB6B591CB96312781A703B6C01333B64E5
:1006D0003A6C7B689A42F0DB7B68C3F108031A46E8
:1006E000FB6C1344FB643A6D3B6A13443B65FB6B44
:1006F0000133FB63FA6BFB689A42D9DB45E00023C8
:100700003B633EE03B6DFB6200237B6319E0FB6CC7
:100710005A1CFA641A78FB6A1A70BB6C5A1CBA64C9
:10072000FA6A01321B7813707B6C5A1C7A64FA6A7D
:1007300002321B781370FB6A0333FB627B6B01335D
:100740007B637A6B7B689A42E1DB7B68C3F10803C9
:100750001A46FB6C1344FB647B68C3F108031A461A
:10076000BB6C1344BB647B68C3F108031A467B6C03
:1007700013447B643A6D3B6A13443B653B6B013326
:100780003B633A6BFB689A42BCDBBB6D0833BB65CD
:10079000D7F88830BA6D9A42FFF659AF3B6ADB0052
:1007A0007A6D13447B65FB6D0833FB65D7F88C309D
:1007B000FA6D9A42FFF63BAF7B6E01337B66FB6FAF
:1007C0007A6E9A427FF401AF00237B663B6E013361
:1007D0003B66FAE600BF7B6918466837BD46BDE850
:1007E000804004B0704784B0B0B59AB000AF07F154
:1007F000780484E80F0000237B6600233B66BB6F10
:100800007B63FB6F3B63D7F880301A467B6B02FB40
:1008100003F3FB62D7F89030DB10BB62D7F894305B
:10082000DB107B6203F02EFA034687F8233097F83B
:100830002330002B03D097F82330012B04E1D7F8A5
:1008400088303A6E9A4280F2FE800023FB65E5E034
:10085000FA6FD7F89430396E03FB01F1FB6D0B444E
:10086000D31A082BA8BF0823FB610023BB65C7E090
:10087000FB6D5A00BB6D1344DB00BB61D7F89820B9
:10088000BB6913443B65D7F89C20BB691344FB64E8
:10089000D7F8A020BB691344BB64BA6FD7F8903077
:1008A000796E03FB01F1BB6D0B44D31A082BA8BF73
:1008B00008237B6197F88C30002B43D100233B64E5
:1008C0003BE000237B642AE03B6D5A1C3A651B78B1
:1008D0007B60D7F890307A6E03FB02F2BB6D1A444E
:1008E0007B6C1A44D7F8A430D418D7F894303A6EF9
:1008F00003FB02F2FB6D1A443B6C1A44D7F8A83094
:10090000D5187A687968786803F03AFD03461A4684
:100910002946204603F04BFD7B6C01337B647A6CE7
:100920007B699A42D0DB7B69C3F108031A463B6DB1
:1009300013443B653B6C01333B643A6CFB699A4260
:10094000BFDB5AE00023BB6353E00023FB6334E0CA
:100950003B6D5A1C3A651B783B61FB6C5A1CFA6470
:100960001B78FB60BB6C5A1CBA641B78BB60D7F861
:1009700090307A6E03FB02F2BB6D1A44FB6B1A4493
:10098000D7F8A430D418D7F894303A6E03FB02F2AB
:10099000FB6D1A44BB6B1A44D7F8A830D518BA6857
:1009A000F968386903F0ECFC03461A4629462046EC
:1009B00003F0FDFCFB6B0133FB63FA6B7B699A422E
:1009C000C6DB7B69C3F108031A463B6D13443B65E4
:1009D0007B69C3F108031A46FB6C1344FB647B6913
:1009E000C3F108031A46BB6C1344BB64BB6B0133F1
:1009F000BB63BA6BFB699A42A7DBBB6D0833BB656F
:100A0000D7F89030BA6D9A42FFF632AFFB6ADB003E
:100A10007A6D13447B65FB6D0833FB65D7F8943022
:100A2000FA6D9A42FFF614AF7B6E01337B66D7F8FE
:100A300084307A6E9A427FF4F5AE00237B663B6E7B
:100A400001333B66EEE600BF6837BD46BDE8B04007
:100A500004B07047B0B59AB00AAF0121082003F086
:100A60001BFA03F0F5FA012003F03AFC362003F0FC
:100A7000AFFAE82003F0CCFA07F12C030C22002196
:100A8000184603F0D7FF314B7B6343F2B023FB6280
:100A900007F12C023B462E49184603F027F903467E
:100AA00087F83F3097F83F30002B10D10023089390
:100AB000002307936D4607F110040FCC0FC594E88F
:100AC000070085E807003B460FCBFFF78CFE07F1D8
:100AD0002C030C220021184603F0ACFF1D4B7B6356
:100AE00046F61B43FB6207F12C023B4618491846A9
:100AF00003F0FCF8034687F83F3097F83F30002BAF
:100B000023D16D4607F110040FCC0FC594E8070000
:100B100085E807003B460FCBFFF730FDB863BB6BA2
:100B2000002B12D03B68C3F1C8017B68C3F5A070ED
:100B30003C687B68BA680192009323460246B86B12
:100B4000FFF7A6FCB86B03F04BFCFEE7C04D0008B6
:100B50001F0500087480000890B583B000AF104BEB
:100B600004221A700F4B00221A700F4B1C680C4B9A
:100B70001B781A460D4BD018094B1B785B42D9B233
:100B80000B4B1B68074AA0470346FB71FB79002B00
:100B900002D0084AFB79137000BF0C37BD4690BDE8
:100BA0002C1100202D110020701100202C1000208D
:100BB000741100207811002080B500AF144B1B7811
:100BC000002B13D1FFF7C8FF114B1B78002B0DD161
:100BD000104B1B78DB43DAB20E4B1A700D4B1B78AF
:100BE000002B01D0FF2310E0D9230EE0084B1B7827
:100BF000013BDAB2064B1A70074B1B785A1CD1B274
:100C0000054A11701A46054B9B5C184680BD00BF13
:100C10002D1100202A1000202C1100202C10002063
:100C200080B483B000AF0346FB710B4B1B78013BD4
:100C3000DAB2094B1A70084B1B781946074AFB7940
:100C40005354074B1B780133DAB2054B1A7000BFBF
:100C50000C37BD4680BC70472C1100202C100020A2
:100C60002D11002080B584B000AF0346FB71FFF763
:100C7000A3FF0346FB73FB79002B10D0FB7BFF2BFC
:100C80000DD1FFF799FF0346BB73BB7B002B06D04A
:100C9000BB7B1846FFF7C4FFFF20FFF7C1FFFB7BBC
:100CA00018461037BD4680BD80B584B000AF0346FE
:100CB0000A46FB711346BB71FB797B73414B1B8862
:100CC000FB81FB79082B31D9FB79083BFB713D4B4C
:100CD0001B881A463C4B1B7802FA03F39AB2394B35
:100CE0001A80BB791846FFF7BDFF03469AB2354B11
:100CF0001B8813439AB2334B1A80324B1B881A4617
:100D0000314B1B78C3F1080302FA03F39AB22D4B5F
:100D10001A80B7F90E3023F0FF031AB2294B1B8853
:100D20001B0A9BB21BB213431BB2FB81264B1B78E1
:100D3000FA799A422BD9234B1B881A46224B1B78EF
:100D400002FA03F39AB21F4B1A80BB791846FFF7D9
:100D500089FF03469AB21B4B1B8813439AB2194B67
:100D60001A80184B1B881946FB79174A12789B1A70
:100D700001FA03F39AB2134B1A80134B1A78FB79DA
:100D8000D31ADBB20833DAB20F4B1A700FE00E4BF6
:100D90001A78FB79D31ADAB20B4B1A70094B1B88FD
:100DA0001A46FB7902FA03F39AB2064B1A80FA89C3
:100DB0007B7BC3F1100342FA03F39BB21846103752
:100DC000BD4680BD2E1100203011002080B582B0BC
:100DD00000AF0346FB71FB7900211846FFF764FF63
:100DE000034618460837BD4680BD80B582B000AFC7
:100DF0000346FB71FB7901211846FFF755FF0346B7
:100E000018460837BD4680BD80B582B000AF0023CC
:100E1000FB71164B1B881BB2002B01DA0123FB71FF
:100E2000134B1B78002B10D10120FFF71BFF03464B
:100E30009AB20E4B1B8813439AB20C4B1A800C4B80
:100E40001B780833DAB20A4B1A70094B1B78013B46
:100E5000DAB2074B1A70054B1B885B009AB2034B42
:100E60001A80FB7918460837BD4680BD2E11002038
:100E70003011002080B483B000AF0346FB71FB79D2
:100E80000F2B4AD801A252F823F000BFCD0E000864
:100E9000D10E0008D50E0008D90E0008DD0E00089E
:100EA000E10E0008E50E0008E90E0008ED0E00084E
:100EB000F10E0008F70E0008FD0E0008030F0008F1
:100EC000090F00080F0F0008150F0008002325E088
:100ED000012323E0022321E004231FE008231DE077
:100EE00010231BE0202319E0402317E0802315E0A6
:100EF0004FF4807312E04FF400730FE04FF48063FF
:100F00000CE04FF4006309E04FF4805306E04FF427
:100F1000005303E04FF4804300E0002318460C37F1
:100F2000BD4680BC704700BF80B483B000AF0346AD
:100F3000FB71FB790F2B4CD801A252F823F000BFB4
:100F4000810F0008850F00088B0F0008910F000823
:100F5000970F00089D0F0008A30F0008A90F0008B5
:100F6000AF0F0008B50F0008BB0F0008BF0F000847
:100F7000C30F0008C70F0008CB0F0008CF0F0008F1
:100F8000002327E04FF0FF3324E06FF0020321E05D
:100F90006FF006031EE06FF00E031BE06FF01E0300
:100FA00018E06FF03E0315E06FF07E0312E06FF083
:100FB000FE030FE06FF4FF730CE0094B0AE0094BEE
:100FC00008E0094B06E0094B04E0094B02E0094B3D
:100FD00000E0002318460C37BD4680BC704700BFB8
:100FE00001FCFFFF01F8FFFF01F0FFFF01E0FFFF41
:100FF00001C0FFFF0180FFFF80B582B000AF034654
:101000000A46FB8013467B717B791846FFF732FF57
:1010100003461A46FB8893420AD27B791846FFF7AB
:1010200083FF03469AB2FB8813449BB21BB201E0D4
:10103000B7F9063018460837BD4680BD80B584B084
:1010400000AF786039600023FB73FFF7DDFE0346D5
:10105000BB81FB7B102B01D1002333E0FA7B7B6843
:10106000103233F812307B81BA897B899A4204D8D6
:101070007B894FF6FF7293420DD1FB7B0133FB73EB
:10108000BB895B00BB81FFF7BFFE03469AB2BB89F9
:101090001343BB81DDE700BFFB7B7A68134493F801
:1010A00040307B72BB89DAB2F97B7B6833F8113050
:1010B000DBB2D31ADAB27B7A13447B727B7A3A685A
:1010C00013441B7818461037BD4680BD80B485B0E8
:1010D00000AF786039600023FB730023BB730023EB
:1010E000BB81FB7B7A6813441B78FB72FB7A002B75
:1010F00012D1FA7B3B68002123F81210FA7B3B687F
:1011000010324FF6FF7123F81210FB7B3A6813443C
:10111000002283F840201FE0FA7B3B68B98923F85E
:101120001210FB7A9AB2BB8913449BB2FA7B013B43
:1011300099B23B68103223F81210FB7B3A681344D3
:10114000BA7B83F84020BA7BFB7A1344BB73FB7AEB
:101150009AB2BB891344BB81BB895B00BB81FB7B1B
:101160000133FB73FB7B0F2B00D8BAE700BF00BF36
:101170001437BD4680BC704780B483B000AF0346CF
:10118000FB71FB79032B13D801A252F823F000BFA7
:10119000A1110008A5110008A9110008AD1100084F
:1011A000064B06E0064B04E0064B02E0064B00E06F
:1011B000002318460C37BD4680BC7047C80C002081
:1011C000280D0020880D0020D80E002080B483B0A8
:1011D00000AF0346FB71FB79032B13D801A252F831
:1011E00023F000BFF5110008F9110008FD110008F7
:1011F00001120008064B06E0064B04E0064B02E035
:10120000064B00E0002318460C37BD4680BC7047F3
:10121000180D0020780D0020D80D0020280F002088
:1012200080B483B000AF0346FB71FB79012B01D87A
:101230000C2300E0FF2318460C37BD4680BC7047E6
:1012400080B58AB000AF1020FFF7C0FD0346FB84D5
:10125000FB8C012B01D804239FE0FB8C023BFB8419
:1012600096E00820FFF7B2FD034687F8213097F893
:10127000213003F00E03002B05D197F8213003F045
:10128000F003102B01DD032387E097F82130DB0802
:10129000DBB25BB203F002035AB297F9213003F0DC
:1012A00001035BB213435BB287F8203097F820301C
:1012B0001846FFF761FFF86197F820301846FFF7EE
:1012C00085FFB86197F82030012202FA03F35AB281
:1012D000344B1B785BB213435BB2DAB2314B1A70FA
:1012E00000237B84002387F8253015E00820FFF7D2
:1012F0006DFD03467B7597F8253028333B447A7D96
:1013000003F8242C7B7D9AB27B8C13447B8497F862
:101310002530013387F8253097F825300F2BE5D994
:1013200097F820301846FFF77BFF03461A467B8C60
:10133000934201D9022330E0002387F825300FE0E3
:101340000820FFF743FD0346194697F82530BA6990
:101350001344CAB21A7097F82530013387F8253044
:1013600097F825309BB27A8C9A42E9D87B8C11335E
:10137000FB82FA8CFB8A9A4201D204230DE0FA8C9C
:10138000FB8AD31AFB843B1DF9691846FFF79EFEC2
:10139000FB8C002B7FF465AF002318462837BD4631
:1013A00080BD00BF2810002090B585B000AF102090
:1013B000FFF70CFD0346FB81FB89012B01D80523B8
:1013C0006BE0FB89023BFB8163E00820FFF7FEFC3A
:1013D0000346FB71FB791B09BB71FB7903F00F031B
:1013E000FB71FB79012B01D9062356E0FB79002B19
:1013F00001D0022200E001222A4B1B785BB213438A
:101400005BB2DAB2274B1A7000237B7323E008200B
:10141000FFF7DCFC03463B81BB79002B08D03B89FE
:101420001B029CB20820FFF7D1FC034623443B81FA
:10143000FB79002B06D07B7BB7F908101A4A22F8FB
:10144000131005E07B7BB7F90810184A22F8131037
:101450007B7B01337B737B7B3F2BD8D9FB79002BC4
:1014600001D0114B00E0114B184600F053FD412311
:101470007B81BB79002B02D07B8940337B81FA8949
:101480007B899A4201D2152307E0FA897B89D31A16
:10149000FB81FB89002B98D1002318461437BD46E9
:1014A00090BD00BF29100020400C0020C00B002080
:1014B00080B582B000AF1020FFF788FC0346BB80E8
:1014C0000820FFF783FC0346082B01D0072373E0B5
:1014D0001020FFF77BFC03461A46394B1A80384B25
:1014E0001B88002B04D0364B1B88B3F5804F01D9E5
:1014F000082361E01020FFF769FC03461A46314BD0
:101500001A80304B1B88002B04D02E4B1B88B3F560
:10151000804F01D909234FE00820FFF757FC03460D
:10152000DAB2294B1A70284B1B78032B01D90A23F6
:1015300042E0BA88244B1B7819460B465B000B44EB
:1015400008339A4201D00B2336E00023FB712DE0D3
:101550000820FFF73BFC03461A46FB79D1B21B4A31
:10156000D1540420FFF732FC03461A46FB79D1B26E
:10157000174AD1540420FFF729FC03461A46FB7989
:10158000D1B2144AD1540820FFF720FC03461A4672
:10159000FB79D1B2104AD154FB790F4AD35C012BAD
:1015A00001D9242308E0FB790133FB71064B1B783A
:1015B000FA799A42CCD3002318460837BD4680BD3D
:1015C0003411002032110020361100203811002083
:1015D0003C110020401100204411002080B582B051
:1015E00000AF1020FFF7F2FB0346FB80FB88012BC6
:1015F00001D80C230DE0FB88023BFB8005E00820AE
:10160000FFF7E4FBFB88013BFB80FB88002BF6D156
:10161000002318460837BD4680BD000080B500AFE6
:101620001020FFF7D3FB0346042B01D00D2307E066
:101630001020FFF7CBFB03461A46024B1A8000230B
:10164000184680BD4811002080B584B000AF10203E
:10165000FFF7BCFB0346BB810820FFF7B7FB03463F
:10166000DAB23F4B1A70BB89033BBB81BA893C4B52
:101670001B785B0003339A4207D1394B1B78002B50
:1016800003D0374B1B78032B01D90E2364E00023D2
:10169000FB733AE00820FFF799FB0346BB71082073
:1016A000FFF794FB03467B71BB89023BBB810023A0
:1016B000FB7208E0FB7A2B4AD35CBA799A4208D0D5
:1016C000FB7A0133FB72284B1B78FA7A9A42F1D3EA
:1016D00000E000BF244B1B78FA7A9A4201D30F2313
:1016E0003AE0FB7B2149FA7ACA54FB7A7A791209EB
:1016F000D1B21F4AD154FB7A7A7902F00F02D1B2EB
:101700001C4AD154FB7B0133FB73154B1B78FA7BCE
:101710009A42BFD30820FFF759FB0346BB7208204B
:10172000FFF754FB03467B720420FFF74FFB034691
:101730003B720420FFF74AFB0346FB71BB89033B66
:10174000BB8105E00820FFF741FBBB89013BBB8162
:10175000BB89002BF6D1002318461037BD4680BD4B
:101760004E110020381100203611002050110020A9
:10177000541100205811002080B582B000AF002322
:10178000FB71FB790133FB710820FFF71FFB034658
:10179000BB71BB79FF2BF4D10820FFF717FB034681
:1017A000BB71BB79FF2BF7D0BB79002BE9D0BB799C
:1017B00018460837BD4680BD80B584B000AF78605C
:1017C000FFF7DAFF0346FB73FB7B012B58D0002B9E
:1017D00058DDDD2B56DCC02B54DBC03B1D2B51D814
:1017E00001A252F823F000BF611800086118000838
:1017F00061180008611800086B18000861180008DB
:1018000061180008611800088118000861180008B4
:1018100061180008611800087118000861180008B4
:101820006118000861180008811800088118000874
:101830008118000881180008811800088118000824
:101840008118000881180008611800086118000854
:101850006118000875180008851800087B18000832
:101860007B68FA7B1A70002310E0FFF7E9FC0CE0BC
:1018700011230BE0FFF798FD07E0FFF7CFFE04E030
:10188000122303E0FFF7AAFE00BF99E718461037BE
:10189000BD4680BD80B582B000AF0820FFF796FA44
:1018A00003463B710820FFF791FA03467B713B79B1
:1018B000FF2B04D17B79D82B01D1002328E04FF4F2
:1018C0008053FB80FB88013BFB80FB88002B01D110
:1018D00013231DE07B793B710820FFF777FA03465D
:1018E0007B713B79FF2BEDD17B79D82B04D07B79B1
:1018F000D92BE7D113230BE000BF074B1B881B0A32
:101900009BB27B717B79FF2B01D0132300E0002376
:1019100018460837BD4680BD2E11002080B582B024
:1019200000AFFFF7B7FF0346FB71FB79002B01D037
:10193000FB7924E0BB1D1846FFF73EFF0346FB7111
:10194000FB79002B01D0FB7919E0BB79C92B10D0B2
:10195000C92B10DCC02B03D0C22B0CD125230EE0E9
:10196000FFF7A6FD0346FB71FB79002B05D0FB7941
:1019700005E0112303E0142301E000BF0023184613
:101980000837BD4680BD80B584B000AF78607B6805
:1019900000221A7007F10E031846FFF70DFF0346E9
:1019A000FB73FB7B002B01D0FB7B0FE0BB7BD92BB8
:1019B00004D17B6801221A70002307E0BB7BDA2B7D
:1019C00001D0122302E0FFF73FFE0346184610370E
:1019D000BD4680BD80B500AF164B00221A80164B65
:1019E00000221A80154B00221A70154B00221A8013
:1019F000144B00221A70144B00221A70134B002251
:101A00001A70134B00221A70124B00221A70124BDC
:101A100000221A70114B00221A80114B08221A70F2
:101A20000820FFF7D3F90820FFF7D0F90023184664
:101A300080BD00BF3211002034110020361100207B
:101A4000481100204E1100202810002029100020ED
:101A50002A1000202C1100202D1100202E11002012
:101A60003011002080B500AF0E4B1B78002B05D045
:101A70000D4B1B88DBB21846FFF7D2F80A4B1B88C8
:101A80001B0A9BB2DBB21846FFF7CAF8054B0822C7
:101A90001A700820FFF7A9F90820FFF7A6F900BF80
:101AA00080BD00BF301100202E11002080B582B013
:101AB00000AF00237B714FF4C063FB8007E0FFF7AA
:101AC0007BF80346FF2B06D0FB88013BFB80FB889D
:101AD000002BF4D100E000BFFB88002B0BD11D23AD
:101AE0003BE0FFF769F803467B717B79FF2B06D15A
:101AF000FB88013BFB80FB88002BF2D100E000BF9C
:101B0000FB88002B01D11D2327E07A79154B1B8818
:101B1000D0339A4201D01D231FE0134B00221A80BC
:101B2000114B00225A80104B00229A800F4B1A88CA
:101B30000F4B1A800B4B1B8801339BB203F007033A
:101B40009AB2084B1A800B4B08221A700820FFF734
:101B50004CF90820FFF749F9002318460837BD461D
:101B600080BD00BF4A110020C00C00204811002099
:101B70004C1100203011002080B483B000AF00234E
:101B8000FB7127E0FB79194AD35C1A46184B9B5C22
:101B9000BB71FB79154AD35C1A46164B9B5C02332A
:101BA0007B71154B1B781A46BB7942FA03F303F09D
:101BB0000103002B09D0104B1B781A467B7942FA9F
:101BC00003F303F00103002B01D1182308E0FB7994
:101BD0000133FB71094B1B78FA799A42D2D3002367
:101BE00018460C37BD4680BC704700BF501100201E
:101BF0005411002058110020281000204E11002000
:101C000080B483B000AF0023FB7117E0FB79114A69
:101C1000D35C1A46104B9B5C002B01D0022300E0E2
:101C20000123BB710D4B1A78BB791340DBB2002B3B
:101C300001D1172308E0FB790133FB71084B1B78B6
:101C4000FA799A42E2D3002318460C37BD4680BC8D
:101C5000704700BF501100204411002029100020BF
:101C60004E11002080B582B000AFBB1D1846FFF7B3
:101C70008AFE0346FB71FB79002B01D0FB792DE036
:101C8000BB79002B01D0122328E0FFF775FF034634
:101C9000FB71FB79002B01D0FB791FE0FFF7B0FF50
:101CA0000346FB71FB79002B01D0FB7916E00D4B4D
:101CB00000221A800B4B00225A800A4B00229A8085
:101CC000094B1B88002B06D0074B1A88074B1A803C
:101CD000074B00221A80FFF7C5FE0023184608377D
:101CE000BD4680BDC00C0020481100204C110020D2
:101CF0004A11002080B400AF794B1B78012B19D119
:101D0000784B1B78012B03D1774B1B78012B01D02B
:101D10001B23E1E0754B00221A70754B01221A70EB
:101D2000744B00221A70744B08221A70734B0822ED
:101D30001A70A1E06A4B1B78032B40F09B80694B23
:101D40005B78012B0BD1684B5B78012B07D1654B7E
:101D50009B78012B03D1644B9B78012B01D01B2373
:101D6000BAE0604B1B78012B19D15F4B1B78012B1C
:101D700015D15E4B01221A705D4B03221A705D4B28
:101D800000221A705B4B01225A705A4B02229A7041
:101D9000594B08221A70594B08221A706CE0514BAB
:101DA0001B78012B1CD1504B1B78022B18D14F4BA9
:101DB00003221A704E4B04221A704E4B00221A70E6
:101DC0004C4B00225A704B4B01229A70494B022215
:101DD000DA70494B08221A70484B10221A704BE0F7
:101DE000404B1B78022B1CD13F4B1B78012B18D189
:101DF0003E4B02221A703E4B04221A703D4B0022C9
:101E00001A703C4B00225A703A4B01229A70394B9F
:101E10000222DA70384B10221A70384B08221A70DE
:101E20002AE0304B1B78022B22D12F4B1B78022B40
:101E30001ED12E4B04221A702D4B06221A702D4BE8
:101E400000221A702B4B00225A702A4B00229A70E3
:101E5000284B0022DA70274B01221A71254B0222EF
:101E60005A71254B10221A70244B10221A7003E06D
:101E70001B2331E01A232FE0214B1B881A461E4BEF
:101E80001B78013B1A441C4B1B78082B01D1032300
:101E900000E0042342FA03F39AB21A4B1A801A4B59
:101EA0001B881A46154B1B78013B1A44134B1B78B1
:101EB000082B01D1032300E0042342FA03F39AB272
:101EC000124B1A800F4B1B88104A128802FB03F337
:101ED0009AB20F4B1A8000231846BD4680BC70474B
:101EE000361100203C110020401100205B11002021
:101EF0005C110020681100205D1100205E1100209F
:101F000032110020601100203411002062110020E5
:101F10006411002080B485B000AF78600023FB73AB
:101F20001AE0FB7B5B007A681344B3F90030BB60B6
:101F3000FB7B0E4AD35C1A46BB6802FB03F3BB6013
:101F4000BB680433D910FB7B5B007A6813440AB288
:101F50001A80FB7B0133FB73FB7B3F2BE1D900BF76
:101F600000BF1437BD4680BC704700BFD0EC0008EE
:101F700080B485B000AF0346FB80B7F906304FF45C
:101F8000B57202FB03F3FB60FB688033FB60FB6808
:101F90001B121BB218461437BD4680BC704780B474
:101FA00085B000AF0346FB80B7F9063040F29D22B2
:101FB00002FB03F3FB60FB688033FB60FB681B12D2
:101FC0001BB218461437BD4680BC704780B485B03C
:101FD00000AF0346FB80B7F9063040F2151202FB52
:101FE00003F3FB60FB688033FB60FB681B121BB2D2
:101FF00018461437BD4680BC704780B485B000AF2A
:102000000346FB80B7F90630C42202FB03F3FB60F2
:10201000FB688033FB60FB681B121BB21846143749
:10202000BD4680BC704780B483B000AF0346FB80E0
:10203000FB88FF2B0BD9B7F90630002B01DA002300
:1020400007E0B7F90630FF2B01DDFF2301E0FB8835
:10205000DBB218460C37BD4680BC704790B593B0D4
:1020600000AF284B3B64002387F8473031E13B6CDD
:102070000233B3F900203B6C0433B3F9003013434F
:102080001AB23B6C0633B3F9003013431AB23B6CFF
:102090000833B3F9003013431AB23B6C0A33B3F977
:1020A000003013431AB23B6C0C33B3F900301343C6
:1020B0001AB23B6C0E33B3F9003013431BB2002B42
:1020C00022D13B6C1B88BB803B6C0233BA881A80E0
:1020D0003B6C0433BA881A803B6C0633BA881A808A
:1020E0003B6C0833BA881A803B6C0A33BA881A8072
:1020F0003B6C0C33BA881A803B6C0E33BA881A805A
:10210000DFE000BF400800203B6C5B89FB873B6C35
:10211000DB88BB87FA8FBB8FD31A9BB27B87FA8F82
:10212000BB8F13449BB23B873B6C5B88FB863B6C4D
:10213000DB89BB86FA8EBB8E13449BB27B86FA8EFC
:10214000BB8ED31A9BB23B867A8F3B8ED31A9BB23F
:102150001BB21846FFF751FF0346FB85B7F9303035
:102160001846FFF733FF03469AB2FB8DD31A9BB292
:10217000BB85FC8DB7F93A301846FFF710FF0346D0
:102180009BB2E31A9BB27B857A8E3B8FD31A9BB2AC
:102190003B857A8E3B8F13449BB2FB84BA8DFB8CBC
:1021A000D31A9BB2BB84B7F928301846FFF7E0FE7C
:1021B00003469AB2BB8CD31A9BB27B847A8C7B8DFC
:1021C00013449BB23B843B6C1B88FB833B6C1B8999
:1021D000BB83FA8BBB8B13449BB27B83FA8BBB8B89
:1021E000D31A9BB23B833B6C9B88FB823B6C9B89E5
:1021F000BB82FA8ABB8AD31A9BB27B82FA8ABB8AD9
:1022000013449BB23B82B7F912301846FFF7B0FE79
:1022100003469AB23B8AD31A9BB2FB817A8B3B8AE4
:1022200013449BB2BB817A8B3B8AD31A9BB27B81CE
:102230003A8BFB8913449BB23B813A8BFB89D31ABF
:102240009BB2FB80BA89FB8C13449BB21AB23B6CE5
:102250001A803A89BB8C13449AB23B6C023312B297
:102260001A80FA887B8C13449AB23B6C043312B206
:102270001A807A893B8CD31A9AB23B6C063312B21D
:102280001A807A893B8C13449AB23B6C083312B2A1
:102290001A80FA887B8CD31A9AB23B6C0A3312B23A
:1022A0001A803A89BB8CD31A9AB23B6C0C3312B2A7
:1022B0001A80BA89FB8CD31A9AB23B6C0E3312B2D5
:1022C0001A803B6C10333B6497F84730013387F832
:1022D000473097F84730072B7FF6C9AE00BF00BFE5
:1022E0004C37BD4690BD00BF90B593B000AF334BA7
:1022F0003B64002387F84730AAE13B6C1033B3F905
:1023000000203B6C2033B3F9003013431AB23B6C0E
:102310003033B3F9003013431AB23B6C4033B3F996
:10232000003013431AB23B6C5033B3F900301343FF
:102330001AB23B6C6033B3F9003013431AB23B6CF2
:102340007033B3F9003013431BB2002B38D13B6C10
:10235000B3F900304033DB099BB280339BB21BB230
:102360001846FFF760FE03467B717B791AB23B6C1F
:102370001A803B6C10337A7912B21A803B6C20338E
:102380007A7912B21A803B6C30337A7912B21A80A1
:102390003B6C40337A7912B21A803B6C50337A79B5
:1023A00012B21A803B6C60337A7912B21A803B6C9D
:1023B00070337A7912B21A8042E100BF40080020DF
:1023C0003B6CB3F85030FB873B6C1B8EBB87FA8F9E
:1023D000BB8FD31A9BB27B87FA8FBB8F13449BB200
:1023E0003B873B6C1B8AFB863B6CB3F87030BB862B
:1023F000FA8EBB8E13449BB27B86FA8EBB8ED31AA9
:102400009BB23B867A8F3B8ED31A9BB21BB2184687
:10241000FFF7F3FD0346FB85B7F930301846FFF7A9
:10242000D5FD03469AB2FB8DD31A9BB2BB85FC8DBA
:10243000B7F93A301846FFF7B2FD03469BB2E31AEC
:102440009BB27B857A8E3B8FD31A9BB23B857A8E6B
:102450003B8F13449BB2FB84BA8DFB8CD31A9BB287
:10246000BB84B7F928301846FFF782FD03469AB2BD
:10247000BB8CD31A9BB27B847A8C7B8D13449BB22A
:102480003B843B6C1B88FB833B6CB3F84030BB83C5
:10249000FA8BBB8B13449BB27B83FA8BBB8BD31A17
:1024A0009BB23B833B6C1B8CFB823B6CB3F8603074
:1024B000BB82FA8ABB8AD31A9BB27B82FA8ABB8A16
:1024C00013449BB23B82B7F912301846FFF750FD18
:1024D00003469AB23B8AD31A9BB2FB817A8B3B8A22
:1024E00013449BB2BB817A8B3B8AD31A9BB27B810C
:1024F0003A8BFB8913449BB23B813A8BFB89D31AFD
:102500009BB2FB80B7F90C20B7F926301344403357
:10251000DB099BB280339BB21BB21846FFF783FDE9
:1025200003461AB23B6C1A80B7F90820B7F9243079
:1025300013444033DB099BB280339BB21BB2184675
:10254000FFF771FD03461A463B6C103312B21A8036
:10255000B7F90620B7F9223013444033DB099BB2A8
:1025600080339BB21BB21846FFF75DFD03461A4647
:102570003B6C203312B21A80B7F90A20B7F9203029
:10258000D31A4033DB099BB280339BB21BB218468F
:10259000FFF749FD03461A463B6C303312B21A80EE
:1025A000B7F90A20B7F9203013444033DB099BB256
:1025B00080339BB21BB21846FFF735FD03461A461F
:1025C0003B6C403312B21A80B7F90620B7F92230BB
:1025D000D31A4033DB099BB280339BB21BB218463F
:1025E000FFF721FD03461A463B6C503312B21A80A6
:1025F000B7F90820B7F92430D31A4033DB099BB26E
:1026000080339BB21BB21846FFF70DFD03461A46F6
:102610003B6C603312B21A80B7F90C20B7F9263040
:10262000D31A4033DB099BB280339BB21BB21846EE
:10263000FFF7F9FC03461A463B6C703312B21A805E
:102640003B6C02333B6497F84730013387F84730DF
:1026500097F84730072B7FF650AE00BF00BF4C37CE
:10266000BD4690BD80B483B000AF03460A46FB71FF
:102670001346BB80FB799AB2BB8813449BB2BB80E4
:10268000BB88FF2B0BD9B7F90430002B01DA0023EC
:1026900007E0B7F90430FF2B01DDFF2301E0BB8821
:1026A000DBB218460C37BD4680BC704780B483B09F
:1026B00000AF03460A46FB711346BB80FB799AB212
:1026C000BB88D31A9BB2BB80BB88FF2B0BD9B7F951
:1026D0000430002B01DA002307E0B7F90430FF2BA8
:1026E00001DDFF2301E0BB88DBB218460C37BD4695
:1026F00080BC704790B589B000AF03460A46FB71B5
:102700001346BB71FB795B005C4A1344BB61BB7928
:102710005B4A13447B61BB795A4A13443B610023F3
:10272000BB77A1E00023FB778EE0BB699A1CBA61FE
:10273000B3F90030FB73FB7B582202FB03F31B0A47
:102740009BB22C3B9BB2BB817B691B78B7F90C20F9
:1027500011461846FFF7AAFF03461A467B691A700E
:102760007B6901331A787B695C1CB7F90C30194618
:102770001046FFF79BFF034623707B6908331A78E6
:102780007B6903F10804B7F90C3019461046FFF7CE
:102790008DFF034623707B6909331A787B6903F147
:1027A0000904B7F90C3019461046FFF77FFF0346BE
:1027B0002370FB7B9AB2FB7BC62101FB03F31B0A50
:1027C0009BB213449BB2E33B9BB27B813B691B787A
:1027D000B7F90A2011461846FFF744FF03461A4688
:1027E0003B691A703B6901331A783B695C1CB7F985
:1027F0000A3019461046FFF735FF034623703B6940
:1028000008331A783B6903F10804B7F90A3019460E
:102810001046FFF727FF034623703B6909331A78F8
:102820003B6903F10904B7F90A3019461046FFF76E
:1028300019FF034623707B6902337B613B690233D6
:102840003B61FB7F0133FB77FB7F032B7FF66DAF93
:10285000BB690833BB617B6908337B613B69083323
:102860003B61BB7F0133BB77BB7F032B7FF65AAF46
:1028700000BF00BF2437BD4690BD00BF4008002008
:10288000C0090020C00A002090B589B000AF0346FF
:102890000A46FB711346BB71FB795B003C4A13444B
:1028A000BB61BB793B4A13447B61BB793A4A134411
:1028B0003B610023BB7762E00023FB7756E0BB69F6
:1028C0009A1CBA61B3F90030FB73FB7B582202FB00
:1028D00003F31B0A9BB22C3B9BB2BB817B691B7829
:1028E000B7F90C2011461846FFF7E0FE03461A46DA
:1028F0007B691A707B6901331A787B695C1CB7F9B4
:102900000C3019461046FFF7D1FE03462370FB7BBF
:102910009AB2FB7BC62101FB03F31B0A9BB2134453
:102920009BB2E33B9BB27B813B691B78B7F90A20E2
:1029300011461846FFF796FE03461A463B691A7081
:102940003B6901331A783B695C1CB7F90A301946B8
:102950001046FFF787FE034623707B6902337B61D5
:102960003B6902333B61FB7F0133FB77FB7F032B2A
:10297000A5D9BB690833BB61BB7F0133BB77BB7F84
:10298000072B99D900BF00BF2437BD4690BD00BFBB
:1029900040080020C0090020C00A002090B589B07E
:1029A00000AF03460A46FB711346BB71FB795B001F
:1029B0003E4A1344BB61BB793D4A13447B61BB79FA
:1029C0003C4A13443B610023BB7767E00023FB775D
:1029D00058E0BB699A1CBA61B3F90030FB73FB7B0A
:1029E000582202FB03F31B0A9BB22C3B9BB2BB8118
:1029F0007B691B78B7F90C2011461846FFF756FE85
:102A000003461A467B691A707B6908331A787B691A
:102A100003F10804B7F90C3019461046FFF746FEDB
:102A200003462370FB7B9AB2FB7BC62101FB03F3B9
:102A30001B0A9BB213449BB2E33B9BB27B813B6975
:102A40001B78B7F90A2011461846FFF70BFE03461C
:102A50001A463B691A703B6908331A783B6903F1DF
:102A60000804B7F90A3019461046FFF7FBFD034684
:102A700023707B6901337B613B6901333B61FB7FE1
:102A80000133FB77FB7F072BA3D97B6908337B617D
:102A90003B6908333B61BB7F0133BB77BB7F032BB3
:102AA00094D900BF00BF2437BD4690BD4008002028
:102AB000C0090020C00A002090B589B000AF0346CD
:102AC0000A46FB711346BB71FB795B005C4A1344F9
:102AD000BB61BB795B4A13447B61BB795A4A13449F
:102AE0003B610023BB77A1E00023FB778EE0BB694D
:102AF0009A1CBA61B3F90030FB73FB7B9AB2FB7B83
:102B0000672101FB03F31B0A9BB213449BB2B33B47
:102B10009BB2BB817B691B78B7F90C201146184624
:102B2000FFF7A0FD03461A467B691A707B690133E3
:102B30001A787B695C1CB7F90C3019461046FFF710
:102B400091FD034623707B6908331A787B6903F192
:102B50000804B7F90C3019461046FFF783FD034609
:102B600023707B6909331A787B6903F10904B7F98B
:102B70000C3019461046FFF775FD03462370FB7BAA
:102B8000B72202FB03F31B0A9BB25B3B9BB27B8128
:102B90003B691B78B7F90A2011461846FFF786FDF6
:102BA00003461A463B691A703B6901331A783B6940
:102BB0005C1CB7F90A3019461046FFF777FD03464B
:102BC00023703B6908331A783B6903F10804B7F9AD
:102BD0000A3019461046FFF769FD034623703B692A
:102BE00009331A783B6903F10904B7F90A30194629
:102BF0001046FFF75BFD034623707B6902337B6160
:102C00003B6902333B61FB7F0133FB77FB7F032B87
:102C10007FF66DAFBB690833BB617B6908337B61AD
:102C20003B6908333B61BB7F0133BB77BB7F032B21
:102C30007FF65AAF00BF00BF2437BD4690BD00BF2E
:102C400040080020C0080020C009002090B589B0CD
:102C500000AF03460A46FB711346BB71FB795B006C
:102C60003C4A1344BB61BB793B4A13447B61BB794B
:102C70003A4A13443B610023BB7762E00023FB77B1
:102C800056E0BB699A1CBA61B3F90030FB73FB7B59
:102C90009AB2FB7B672101FB03F31B0A9BB213442F
:102CA0009BB2B33B9BB2BB817B691B78B7F90C200D
:102CB00011461846FFF7D6FC03461A467B691A7080
:102CC0007B6901331A787B695C1CB7F90C301946B3
:102CD0001046FFF7C7FC03462370FB7BB72202FBBD
:102CE00003F31B0A9BB25B3B9BB27B813B691B7866
:102CF000B7F90A2011461846FFF7D8FC03461A46D2
:102D00003B691A703B6901331A783B695C1CB7F95F
:102D10000A3019461046FFF7C9FC034623707B6949
:102D200002337B613B6902333B61FB7F0133FB77FD
:102D3000FB7F032BA5D9BB690833BB61BB7F013384
:102D4000BB77BB7F072B99D900BF00BF2437BD4697
:102D500090BD00BF40080020C0080020C00900202E
:102D600090B589B000AF03460A46FB711346BB71AC
:102D7000FB795B003E4A1344BB61BB793D4A134477
:102D80007B61BB793C4A13443B610023BB7767E01E
:102D90000023FB7758E0BB699A1CBA61B3F9003095
:102DA000FB73FB7B9AB2FB7B672101FB03F31B0ADE
:102DB0009BB213449BB2B33B9BB2BB817B691B7834
:102DC000B7F90C2011461846FFF74CFC03461A468B
:102DD0007B691A707B6908331A787B6903F10804F0
:102DE000B7F90C3019461046FFF73CFC0346237038
:102DF000FB7BB72202FB03F31B0A9BB25B3B9BB23C
:102E00007B813B691B78B7F90A2011461846FFF70A
:102E10004DFC03461A463B691A703B6908331A7821
:102E20003B6903F10804B7F90A3019461046FFF769
:102E30003DFC034623707B6901337B613B690133B1
:102E40003B61FB7F0133FB77FB7F072BA3D97B69BA
:102E500008337B613B6908333B61BB7F0133BB7740
:102E6000BB7F032B94D900BF00BF2437BD4690BD64
:102E700040080020C0080020C009002080B489B0AC
:102E800000AF0346FB71FB79184A1344BB61FB7921
:102E9000174A13447B61FB79164A13443B61164B76
:102EA000FB604023FB7717E0FB689A1CFA60B3F9DC
:102EB0000030FB72BB695A1CBA61FA7A1A707B69DE
:102EC0005A1C7A61FA7A1A703B695A1C3A61FA7A8A
:102ED0001A70FB7F013BFB77FB7F002BE4D100BF27
:102EE00000BF2437BD4680BC704700BFC00800202B
:102EF000C0090020C00A00204008002090B589B019
:102F000000AF0346FB71FB79264A1344BB61FB7992
:102F1000254A13447B61254B3B614023FB7738E016
:102F20003B699A1C3A61B3F90030FB73FB7B582272
:102F300002FB03F31B0A9BB22C3B9BB2BB81BB6918
:102F40001A78BC69631CBB61B7F90C30194610468E
:102F5000FFF7ACFB03462370FB7B9AB2FB7BC621D9
:102F600001FB03F31B0A9BB213449BB2E33B9BB2EE
:102F70007B817B691A787C69631C7B61B7F90A30B5
:102F800019461046FFF76EFB03462370FB7F013B9B
:102F9000FB77FB7F002BC3D100BF00BF2437BD46AA
:102FA00090BD00BFC0090020C00A002040080020DA
:102FB00090B589B000AF0346FB71FB79264A1344F4
:102FC000BB61FB79254A13447B61254B3B61402360
:102FD000FB7738E03B699A1C3A61B3F90030FB7328
:102FE000FB7B9AB2FB7B672101FB03F31B0A9BB2BD
:102FF00013449BB2B33B9BB2BB81BB691A78BC69DB
:10300000631CBB61B7F90C3019461046FFF72AFB69
:1030100003462370FB7BB72202FB03F31B0A9BB220
:103020005B3B9BB27B817B691A787C69631C7B610B
:10303000B7F90A3019461046FFF738FB03462370EC
:10304000FB7F013BFB77FB7F002BC3D100BF00BFA1
:103050002437BD4690BD00BFC0080020C009002035
:103060004008002080B582B000AF0346FB71FEF738
:10307000F5FFFFF739F96A4B1B78042B00F2CC807F
:1030800001A252F823F000BF9D300008A5300008CF
:103090002B310008D53000087F3100080020FFF7F1
:1030A000EDFEB9E0FB79022B0FD0022B00F3AD80CF
:1030B000002B02D0012B04D0A7E00020FFF7DEFE9A
:1030C00007E00020FFF71AFF03E00020FFF770FF82
:1030D00000BF9AE0FB79032B00F2998001A252F81D
:1030E00023F000BFF5300008FD300008053100086E
:1030F000173100080020FFF7C1FE15E08020FFF720
:10310000BDFE11E000210020FFF748FC80212020B7
:10311000FFF744FC08E000210020FFF721FE80219A
:103120002020FFF71DFE00BF71E0FB79032B70D854
:1031300001A252F823F000BF4931000851310008C4
:10314000593100086B3100080020FFF797FE15E0A9
:103150004020FFF793FE11E000210020FFF794FBD1
:1031600040210420FFF790FB08E000210020FFF73A
:103170006DFD40210420FFF769FD00BF49E0FB79A8
:10318000052B48D801A252F823F000BFA531000852
:10319000AD310008B5310008BD310008C531000867
:1031A000E73100080020FFF769FE2DE04020FFF71F
:1031B00065FE29E08020FFF761FE25E0C020FFF7D3
:1031C0005DFE21E000210020FFF794FA4021042059
:1031D000FFF790FA80212020FFF78CFAC0212420ED
:1031E000FFF788FA10E000210020FFF765FC40217E
:1031F0000420FFF761FC80212020FFF75DFCC02147
:103200002420FFF759FC00BF05E000BF04E000BF29
:1032100002E000BF00E000BF00BF0837BD4680BD30
:103220005B11002080B586B000AF0346FB71BF4B39
:10323000B3F900304033DB099BB280339BB21BB241
:103240001846FEF7F0FE0346FB75B94B1B78042BBE
:1032500000F2658301A252F823F000BF713200082A
:1032600079320008DD340008613300086F36000849
:10327000B04AFB7D137052E3FB79022B40D0022B46
:1032800000F34683002B02D0012B0AD040E3A94A69
:10329000FB7D1370A84AFB7D1370A84AFB7D137059
:1032A0005DE0FB7D582202FB03F31B0A9BB22C3B23
:1032B0009BB23B82A04B1B78B7F9102011461846F1
:1032C000FFF7F4F903461A469B4B1A70FB7D9AB23E
:1032D000FB7DC62101FB03F31B0A9BB213449BB287
:1032E000E33B9BB2FB81954B1B78B7F90E2011464F
:1032F0001846FFF7B7F903461A46904B1A702EE0AE
:10330000FB7D9AB2FB7D672101FB03F31B0A9BB295
:1033100013449BB2B33B9BB2BB82864B1B78B7F97D
:10332000142011461846FFF79DF903461A46814BB3
:103330001A70FB7DB72202FB03F31B0A9BB25B3BB7
:103340009BB27B827C4B1B78B7F912201146184642
:10335000FFF7ACF903461A46774B1A7000BFD7E265
:10336000FB79032B00F2D68201A252F823F000BFB2
:103370008133000895330008AF3300084534000856
:103380006C4AFB7D13706C4AFB7D13706B4AFB7DAE
:103390001370A2E0674AFB7D82F88030664AFB7DAD
:1033A00082F88030654AFB7D82F8803095E0FB7DB5
:1033B000582202FB03F31B0A9BB22C3B9BB23B82BD
:1033C0005D4B1B78B7F9102011461846FFF76EF9D0
:1033D00003461A46584B1A70574B93F88030B7F98A
:1033E000102011461846FFF761F903461A46524B62
:1033F00083F88020FB7D9AB2FB7DC62101FB03F39D
:103400001B0A9BB213449BB2E33B9BB2FB814B4B29
:103410001B78B7F90E2011461846FFF723F903462B
:103420001A46464B1A70454B93F88030B7F90E2078
:1034300011461846FFF716F903461A463F4B83F824
:1034400080204AE0FB7D9AB2FB7D672101FB03F3FC
:103450001B0A9BB213449BB2B33B9BB2BB82354B5E
:103460001B78B7F9142011461846FFF7FBF80346FE
:103470001A46304B1A702F4B93F88030B7F914204E
:1034800011461846FFF7EEF803461A46294B83F813
:103490008020FB7DB72202FB03F31B0A9BB25B3B40
:1034A0009BB27B82244B1B78B7F912201146184639
:1034B000FFF7FCF803461A461F4B1A701E4B93F891
:1034C0008030B7F9122011461846FFF7EFF803468F
:1034D0001A46194B83F8802000BF1BE2FB79032BAF
:1034E00000F21A8201A252F823F000BFFD34000856
:1034F0001135000841350008D73500080D4AFB7D1D
:1035000013700D4AFB7D13700C4AFB7D1370ADE008
:10351000084AFB7D82F84030074AFB7D82F8403044
:10352000064AFB7D82F84030A0E000BF4008002042
:103530005B110020C0080020C0090020C00A002044
:10354000FB7D582202FB03F31B0A9BB22C3B9BB270
:103550003B82AA4B1B78B7F9102011461846FFF79B
:10356000A5F803461A46A54B1A70A44B93F84030B1
:10357000B7F9102011461846FFF798F803461A4687
:103580009E4B83F84020FB7D9AB2FB7DC62101FB58
:1035900003F31B0A9BB213449BB2E33B9BB2FB8138
:1035A000974B1B78B7F90E2011461846FFF75AF8CB
:1035B00003461A46924B1A70914B93F84030B7F974
:1035C0000E2011461846FFF74DF803461A468C4B5D
:1035D00083F840204AE0FB7D9AB2FB7D672101FB26
:1035E00003F31B0A9BB213449BB2B33B9BB2BB8257
:1035F000844B1B78B7F9142011461846FFF732F8B0
:1036000003461A467F4B1A707E4B93F84030B7F949
:10361000142011461846FFF725F803461A46794B41
:1036200083F84020FB7DB72202FB03F31B0A9BB209
:103630005B3B9BB27B82714B1B78B7F91220114622
:103640001846FFF733F803461A466C4B1A706B4B5B
:1036500093F84030B7F9122011461846FFF726F8C4
:1036600003461A46654B83F8402000BF54E1FB79BE
:10367000052B00F2538101A252F823F09536000881
:10368000A9360008C3360008DD360008F736000802
:10369000093800085B4AFB7D1370584AFB7D1370A4
:1036A000574AFB7D137032E1564AFB7D82F8403069
:1036B000524AFB7D82F84030514AFB7D82F840300F
:1036C00025E1504AFB7D82F880304C4AFB7D82F830
:1036D00080304B4AFB7D82F8803018E1494AFB7DFF
:1036E00082F8C030454AFB7D82F8C030444AFB7DF9
:1036F00082F8C0300BE1FB7D582202FB03F31B0A6A
:103700009BB22C3B9BB23B823C4B1B78B7F9102001
:1037100011461846FEF7CAFF03461A46374B1A7081
:10372000364B93F84030B7F9102011461846FEF793
:10373000BDFF03461A46314B83F840202F4B93F8C8
:103740008030B7F9102011461846FEF7AFFF034648
:103750001A462A4B83F88020284B93F8C030B7F9DB
:10376000102011461846FEF7A1FF03461A46234BC8
:1037700083F8C020FB7D9AB2FB7DC62101FB03F3D9
:103780001B0A9BB213449BB2E33B9BB2FB811C4BD5
:103790001B78B7F90E2011461846FEF763FF034663
:1037A0001A46174B1A70164B93F84030B7F90E2093
:1037B00011461846FEF756FF03461A46104B83F88B
:1037C00040200F4B93F88030B7F90E201146184671
:1037D000FEF748FF03461A46094B83F88020084B42
:1037E00093F8C030B7F90E2011461846FEF73AFF9D
:1037F00003461A46024B83F8C02088E0C009002027
:10380000C00A0020C0080020FB7D9AB2FB7D672122
:1038100001FB03F31B0A9BB213449BB2B33B9BB265
:10382000BB82414B1B78B7F9142011461846FEF7AE
:1038300019FF03461A463C4B1A703B4B93F8403035
:10384000B7F9142011461846FEF70CFF03461A4636
:10385000354B83F84020344B93F88030B7F914206F
:1038600011461846FEF7FEFE03461A462E4B83F815
:1038700080202D4B93F8C030B7F91420114618461C
:10388000FEF7F0FE03461A46274B83F8C020FB7D67
:10389000B72202FB03F31B0A9BB25B3B9BB27B820A
:1038A000224B1B78B7F9122011461846FEF7FEFE90
:1038B00003461A461D4B1A701C4B93F84030B7F95B
:1038C000122011461846FEF7F1FE03461A46174B22
:1038D00083F84020154B93F88030B7F91220114639
:1038E0001846FEF7E3FE03461A46104B83F8802085
:1038F0000E4B93F8C030B7F9122011461846FEF768
:10390000D5FE03461A46094B83F8C02000BF05E0E8
:1039100000BF04E000BF02E000BF00E000BF00BF46
:103920001837BD4680BD00BFC0080020C009002078
:1039300080B586B000AF9D4B1B88002B12D09C4BEE
:103940001B88002B08D1FEF7B1F803467B747B7C03
:10395000002B01D07B7C8BE1954B1B88013B9AB2FD
:10396000934B1A800023FB757BE1FB7D914AD35C6E
:103970003B743B7C904AD35CFB733B7C8F4AD35CAB
:10398000BB73FB7B002B01D08D4B00E08D4BBB60EC
:10399000BB7B002B01D08C4A00E08C4ABB7B002B08
:1039A00001D08B4B00E08B4B19461046FDF746FBD0
:1039B0000346FB710023BB82FB7903F00F03BB714D
:1039C000BB79002B05D0BB791846FDF70EFA0346EC
:1039D000BB82FA79BB8A11461846FDF70DFB0346F8
:1039E000BB803B7C7C4A32F913309AB2BB881344CB
:1039F000BB803B7CB7F90410774A22F81310BB68F0
:103A0000B3F900309BB2BA8802FB03F39BB21AB23F
:103A1000724B1A803B7C724AD35CFB70714B1B78F3
:103A2000002B52D00123BB7545E0FB78002B01D061
:103A30006D4A00E06D4AFB78002B01D06C4B00E032
:103A40006C4B19461046FDF7F9FA0346FB71FB79FA
:103A500003F00F03BB71BB79002B03D0BB79184671
:103A6000FDF7C3F9FB791B09DBB2BB82FB7903F0DD
:103A70000F03FB71FB79002B0FD0BB8A002B17D0F3
:103A8000BA7DBB8A13443F2B01DD1C23F0E0BB8AC7
:103A9000DAB2BB7D1344BB750AE0BB8A0F2B0ED193
:103AA000BB7D302B01D91C23E2E0BB7D0F33BB75FE
:103AB000BB7D0133BB75BB7D3F2BB6D900E000BF9A
:103AC000FB7D1846FFF7AEFBC8E00123BB75ACE0F9
:103AD000FB78002B01D0444A00E0444AFB78002BDD
:103AE00001D0434B00E0434B19461046FDF7A6FAC0
:103AF0000346FB7100237B82FB7903F00F03BB714C
:103B0000BB79002B05D0BB791846FDF76EF903464B
:103B10007B82FB791B09DBB2BB82FB7903F00F03CD
:103B2000FB71FB79002B36D0BB8A002B17D0BA7DF6
:103B3000BB8A13443F2B0FDD1C2399E0BB7D5A1C2D
:103B4000BA751A462C4B9B561A46244B002123F873
:103B50001210BB8A013BBB82BB8A002BEED1FA79E3
:103B60007B8A11461846FDF747FA03463B80BB7D2A
:103B70005B00BA681344B3F900309BB23A8802FB89
:103B800003F399B2BB7D1C4AD3561A4609B2134BB4
:103B900023F8121046E0BB8A0F2B4BD1BB7D302B94
:103BA00001D91C2364E01023BB8235E048110020BA
:103BB0004C110020681100204411002054110020F5
:103BC000400C0020C00B0020280D0020C80C002055
:103BD000780D0020180D0020C00C002040080020A7
:103BE0005811002079110020D80E0020880D0020E7
:103BF000280F0020D80D002090EC0008BB7D5A1C37
:103C0000BA751A461C4B9B561A461C4B002123F8CA
:103C10001210BB8A013BBB82BB8A002BEED1BB7D5D
:103C2000013BBB75BB7D0133BB75BB7D3F2B7FF675
:103C30004FAF0CE000BF0AE0BB7D5A1CBA751A46B4
:103C40000D4B9B561A460D4B002123F81210BB7DDD
:103C50003F2BF1D9FB7D1846FFF704FAFB7D0133BA
:103C6000FB75074B1B78FA7D9A42FFF47EAE00236A
:103C700018461837BD4680BD90EC0008400800206B
:103C80005C11002080B582B000AF164B1B78002B72
:103C900002D0144B1B7820E0134B1B88002B01D162
:103CA00001231AE0FFF744FE0346FB71FB79002B6A
:103CB00003D10C4B1B78002B08D00A4B1B78002B30
:103CC00002D0084B1B7808E0FB7906E0064B1B8806
:103CD000013B9AB2044B1A80002318460837BD46B0
:103CE00080BD00BF781100206411002080B586B02F
:103CF00000AFF860B9607A60FB6800221A60FB6868
:103D000000225A60FB6800229A60FB680022DA6099
:103D1000FB6800221A61FB6800221A75FB6800220A
:103D20009A61FB680022DA61FB6800221A62FB6874
:103D300000225A62FB6800229A62484ABB681360FC
:103D4000474A7B681360474B00221A70464B00229B
:103D50001A70FDF73FFE0346FB75FB7D002B03D178
:103D6000404B1B78002B08D03E4B1B78002B02D019
:103D70003C4B1B786EE0FB7D6CE0FDF7CFFD03460E
:103D8000FB75FB7D002B03D1364B1B78002B08D035
:103D9000344B1B78002B02D0324B1B785AE0FB7D52
:103DA00058E0FDF7A7FF0346FB75FB7D002B03D111
:103DB0002C4B1B78002B08D02A4B1B78002B02D0F1
:103DC000284B1B7846E0FB7D44E0FDF74BFF0346A4
:103DD000FB75FB7D002B03D1224B1B78002B08D0F9
:103DE000204B1B78002B02D01E4B1B7832E0FB7D52
:103DF00030E01E4B1B881A46FB681A601C4B1B8860
:103E00001A46FB685A601B4B1B781A46FB689A607F
:103E1000194B1A78FB681A75184B1B881A46FB68F1
:103E2000DA60174B1B881A46FB681A61154B1B7822
:103E30001A46FB689A61144B1B781A46FB68DA61D4
:103E4000FB68124A1A62FB68114A5A62FB68114AFF
:103E50009A62002318461837BD4680BD70110020B5
:103E600074110020781100207911002032110020F7
:103E700034110020361100205B1100206011002059
:103E8000621100205D1100205E110020C00800209A
:103E9000C0090020C00A002080B483B000AF786061
:103EA0000B46FB70FB78002B06D0094B9A6908493A
:103EB0007B6813438B6106E0054B9A697B68DB43A3
:103EC000034913408B6100BF0C37BD4680BC70476F
:103ED0000010024080B485B000AF78600A4B1B68C8
:103EE000002B02D1084B094A1A60074B1B68FB6084
:103EF000054B1A687B681344034A1360FB68184635
:103F00001437BD4680BC70477C110020BC110020D6
:103F100080B584B000AF78600023FB6027E0FB68C9
:103F2000C3F107037A6842FA03F303F00103BB60AD
:103F3000BB68002B06D001224FF400411048FCF76B
:103F400090FA05E000224FF400410D48FCF789FA91
:103F500000224FF400510A48FCF783FA01224FF483
:103F600000510748FCF77DFAFB680133FB60FB68F2
:103F7000072BD4DD00BF00BF1037BD4680BD00BF9A
:103F8000000C014080B582B000AF786001224FF490
:103F900000610E48FCF765FA00224FF480510B488F
:103FA000FCF75FFA7B681B121846FFF7B1FF7B68CE
:103FB000DBB21846FFF7ACFF01224FF480510348F3
:103FC000FCF74FFA00BF0837BD4680BD000C01402A
:103FD00080B582B000AF786000224FF400610B48DA
:103FE000FCF73FFA00224FF480510848FCF739FAF9
:103FF0007868FFF78DFF01224FF480510348FCF7EA
:1040000030FA00BF0837BD4680BD00BF000C01403C
:1040100080B582B000AF786001224FF400610B4898
:10402000FCF71FFA00224FF480510848FCF719FAF8
:104030007868FFF76DFF01224FF480510348FCF7C9
:1040400010FA00BF0837BD4680BD00BF000C01401C
:1040500080B584B000AF0023BB604BF60143BB804A
:104060000323BB711023FB713B1D19469B48FCF7D2
:104070003CF94FF48043BB804823FB713B1D19463C
:104080009648FCF732F901224FF480519348FCF72F
:10409000E8F901224FF400619048FCF7E2F90022B0
:1040A0004FF480618D48FCF7DCF90023FB6002E0EF
:1040B000FB680133FB60FB684FF6FE729342F7DD4D
:1040C00001224FF480618548FCF7CBF9CB20FFF744
:1040D0007FFF3920FFF79CFF2C20FFF799FF00207E
:1040E000FFF796FF3420FFF793FF0220FFF790FFC2
:1040F000CF20FFF76DFF0020FFF78AFFC120FFF7F9
:1041000087FF3020FFF784FFE820FFF761FF85205D
:10411000FFF77EFF0020FFF77BFF7820FFF778FF97
:10412000EA20FFF755FF0020FFF772FF0020FFF79E
:104130006FFFED20FFF74CFF6420FFF769FF0320BE
:10414000FFF766FF1220FFF763FF8120FFF760FF94
:10415000F720FFF73DFF2020FFF75AFFC020FFF7B1
:1041600037FF2320FFF754FFC120FFF731FF102056
:10417000FFF74EFFC520FFF72BFF3E20FFF748FF5C
:104180002820FFF745FFC720FFF722FF8620FFF713
:104190003FFF3620FFF71CFF4820FFF739FF3A208A
:1041A000FFF716FF5520FFF733FFB120FFF710FF91
:1041B0000020FFF72DFF1820FFF72AFFB620FFF79A
:1041C00007FF0820FFF724FF8220FFF721FF2720A9
:1041D000FFF71EFFF220FFF7FBFE0020FFF718FF9E
:1041E0002620FFF7F5FE0120FFF712FFE020FFF782
:1041F000EFFE0F20FFF70CFF3120FFF709FF2B2008
:10420000FFF706FF0C20FFF703FF0E20FFF700FF6C
:104210000820FFF7FDFE4E20FFF7FAFEF120FFF722
:10422000F7FE3720FFF7F4FE0720FFF7F1FE10201E
:10423000FFF7EEFE0320FFF7EBFE0E20FFF7E8FE90
:104240000920FFF7E5FE0020FFF7E2FEE120FFF77F
:10425000BFFE0020FFF7DCFE0E20FFF7D9FE142082
:10426000FFF7D6FE0320FFF7D3FE1120FFF7D0FEA5
:104270000720FFF7CDFE3120FFF7CAFEC120FFF770
:10428000C7FE4820FFF7C4FE0820FFF7C1FE0F203D
:10429000FFF7BEFE0C20FFF7BBFE3120FFF7B8FE94
:1042A0003620FFF7B5FE0F20FFF7B2FE1120FFF713
:1042B0008FFE0023FB6002E0FB680133FB60FB68BC
:1042C00040F6FE729342F7DD2920FFF781FE2C2095
:1042D000FFF77EFE00BF1037BD4680BD000C0140D9
:1042E00080B582B000AF78607B68002B05D00122DA
:1042F00001210648FCF7B5F804E00022012103483B
:10430000FCF7AFF800BF0837BD4680BD000C014088
:1043100080B582B000AF786039602A20FFF758FE80
:104320007868FFF72FFE3868FFF72CFE00BF0837CC
:10433000BD4680BD80B582B000AF786039602B206B
:10434000FFF746FE7868FFF71DFE3868FFF71AFE94
:1043500000BF0837BD4680BD80B582B000AF786031
:10436000396079687868FFF7D3FF39683868FFF7F4
:10437000E1FF2C20FFF72CFE00BF0837BD4680BDB3
:1043800080B485B000AFF860B9607A60FB681B024A
:1043900003F47842BB68DB0003F4FC631A437B68D8
:1043A000DB10134318461437BD4680BC704780B5F8
:1043B00084B000AFF860B9607A60B968F868FFF758
:1043C000CBFF7868FFF7DEFD00BF1037BD4680BD2C
:1043D000024B0146186800F00BB800BF1004002023
:1043E000024B0146186800F0E5BB00BF1004002036
:1043F0002DE9F04F01F10B05162D064683B025D8A7
:10440000102900F2B88000F067FB102518224FF049
:10441000020CB54F3A445368A2F108018B4200F0F8
:10442000B7805A68D96822F003021A449C68304663
:10443000E1608C60516803F1080441F001015160B2
:1044400000F050FB204603B0BDE8F08F35F00705C3
:1044500000F19180A94200F28E8000F03DFBB5F59D
:10446000FC7FC0F094816B0A00F08C80042B00F27A
:104470006A81AB0903F1390C03F138044FEACC002F
:10448000994F384443680838984206D10CE0002917
:1044900080F22681DB68984206D05A6822F0030237
:1044A000511B0F29F3DDA4463C69DFF840E2744557
:1044B0007AD0626822F00302531B0F2B00F376813F
:1044C000002BC7E904EE80F26781B2F5007F80F02F
:1044D00019810121D30852090B4491407A6857F899
:1044E00033000A4307EBC3010839A060E1607A603A
:1044F00047F83340C46001214FEAAC039940914230
:1045000059D8114206D12CF0030C490011420CF18C
:10451000040CFAD007EBCC0948466446D0F80C806E
:10452000404508D11CE1002B80F22181D8F80C8095
:10453000404500F01581D8F8042022F00302531BF7
:104540000F2BF0DD08EB050145F00105C8F804501C
:104550003046D8E90264F460A66043F00104C7E97C
:1045600004114C60C1E902EE48F8023000F0BAFADA
:1045700008F1080402E00C2300243360204603B055
:10458000BDE8F08F4FF400704FF0400C3F2477E708
:10459000D3689A4208BF0CF1020C7FF442AF3C6929
:1045A000DFF848E1744584D101217A684FEAAC0311
:1045B00099409142A5D9BC68636823F003094D4531
:1045C00003D8A9EB05030F2B7ADCDFF824B1494BA4
:1045D000DBF800201B6801322B4404EB090A00F0D1
:1045E0002F8103F580530F3323F47F6828F00F08E1
:1045F0004146304600F07CFA411C024600F0EF8054
:10460000824500F2EA803C4B196841440846196033
:1046100000F04981DBF80010019301311BBFA2EBD0
:104620000A0A5044CBF80020186012F0070B00F083
:104630001181CBF108010A44CBF580519044083137
:10464000A1EB0801C1F30B0A51463046009200F07D
:104650004FFA421CDDE9002300F04B81801A00EB89
:104660000A08196848F001005144BC42BA60196058
:10467000506000F02481B9F10F0F40F222814FF019
:10468000050E6068A9F10C0C2CF0070C00F001007D
:1046900040EA0C006060BCF10F0F04EB0C00C0E9B5
:1046A00001EE00F22E8114465068144B1A688A42BB
:1046B00038BF1960124B1A688A4238BF196090E0FF
:1046C000621943F0010345F0010565603046BA60A8
:1046D0000834536000F006FA204603B0BDE8F08FBE
:1046E000D9681A44A2E600BF00000020080000209C
:1046F00008040020B011002080110020A811002023
:10470000AC110020B2F5206F4FEA52235FD3142B77
:1047100000F2B18003F15C01C9005B33781879586D
:104720000838884200F08F804B6823F003039342DF
:1047300002D989688842F7D1C8687A68C4E902104A
:104740008460CC60D7E6142B59D9542B00F29B809F
:104750002B0B03F16F0C03F16E044FEACC008FE6D4
:104760000134A30700F108007FF4D8AE53E04446BB
:1047700042445368D8F80C1043F00103536054F8D6
:10478000083F3046D9608B6000F0ACF9F6E64FEA9E
:10479000D50C05F108023CE622445368304643F04C
:1047A0000103536000F09EF90834E7E6611945F013
:1047B0000105656043F00105C7E904113046C1E910
:1047C00002EE4D60A35000F08DF90834D6E693094F
:1047D00003F13901C9003833A0E7BC425ED0BC68A0
:1047E000606820F003084545A8EB050302D80F2BAD
:1047F0003FF766AF304600F075F90024BEE603F1DE
:104800005C0C03F15B044FEACC0039E659F8083937
:104810004B4540F095801CF0030F0CF1FF3CF5D1A7
:104820007B6823EA01037B60490099423FF6C3AEEF
:1048300011B9C0E6490004341942FBD0A44669E628
:1048400003F11008D4E601229B109A407B681A43BA
:104850007A6073E702EB08014942C1F30B0A514643
:104860003046009200F044F9431CDDE900237FF458
:10487000F5AEDA46F5E6542B26D8130B03F16F019B
:10488000C9006E334AE7B3F5AA7F26D8EB0B03F1D4
:10489000780C03F177044FEACC00F1E5294B186856
:1048A00040441860B6E6CAF30B0CBCF1000F7FF46D
:1048B000B1AEBC68C84448F001006060F5E614463B
:1048C000F3E60123536095E7B3F5AA7F24D8D30B11
:1048D00003F17801C900773320E740F25452934244
:1048E00024D8AB0C03F17D0C03F17C044FEACC001F
:1048F000C6E5ABF1080BD8444FF0000AA8EB02085C
:10490000AFE604F108013046009300F053F9BC68AB
:10491000009B60681968C8E640F254518B420BD87E
:10492000930C03F17D01C9007C33F7E64FF47E70F0
:104930004FF07F0C7E24A3E54FF47E717E23EDE6DD
:104940007B6871E780110020844641EA000313F080
:10495000030349D1403A23D30B6803604B6843609B
:104960008B688360CB68C3600B6903614B694361EB
:104970008B698361CB69C3610B6A03624B6A4362D3
:104980008B6A8362CB6AC3620B6B03634B6B4363BB
:104990008B6B8363CB6BC36340304031403ADBD2D7
:1049A00030320BD30B6803604B6843608B688360C5
:1049B000CB68C36010301031103AF3D20C3205D3FB
:1049C00051F8043B40F8043B043AF9D2043208D0D1
:1049D000D2071CBF11F8013B00F8013B01D30B8843
:1049E00003806046704700BF082A13D38B07B1D0FD
:1049F00010F00303AED0C3F10403D21ADB071CBFCF
:104A000011F8013B00F8013BA4D331F8023B20F838
:104A1000023B9FE7043AD9D3013A11F8013B00F871
:104A2000013BF9D20B7803704B7843708B7883701D
:104A300060467047830730B548D0541E002A3FD0E7
:104A40000346CAB201E0013C3AD303F8012B9D07AB
:104A5000F9D1032C2DD9CDB245EA05250F2C45EA15
:104A6000054536D9A4F1100222F00F0C03F1200EF7
:104A7000E6444FEA121C03F1100242E9045542E9F0
:104A8000025510327245F8D10CF1010214F00C0FEE
:104A900003EB021204F00F0C13D0ACF1040323F06B
:104AA00003030433134442F8045B9342FBD10CF03C
:104AB00003042CB1CAB21C4403F8012B9C42FBD165
:104AC00030BD64461346002CF4D1F9E70346144682
:104AD000BFE71A46A446E0E7014800F06BB900BF03
:104AE000B4110020014800F067B900BFB4110020E4
:104AF000002238B5064D044608462A60FFF7EAF959
:104B0000431C00D038BD2B68002BFBD0236038BD80
:104B1000B8110020F8B50C46234F0646FFF7DCFF1E
:104B2000BB685D68C4F57E6325F003050F332B4435
:104B300023F47F6323F00F03A3F58054B4F5805F63
:104B400007DB00213046FFF7D3FFBB682B449842B8
:104B500004D03046FFF7C6FF0020F8BD3046614262
:104B6000FFF7C6FF01300DD0104ABB682D1B45F082
:104B700001055D60136830461B1B1360FFF7B2FF31
:104B80000120F8BD00213046FFF7B2FFBA68831A52
:104B90000F2BDEDD43F001035360054B03491B6817
:104BA000C01A0860D5E700BF000000208011002077
:104BB0000804002000295ED0F8B50C460646FFF731
:104BC0008BFF54F8042C784FA4F1080522F0010162
:104BD0006818D7F808C04368844523F0030300F041
:104BE0008780D207436034D454F8082C07F10804B6
:104BF000AD1A1144AA68A24268D000EB030CDCF89D
:104C000004E0D5F80CC01EF0010FC2F80CC0CCF8BF
:104C1000082000F0918041F001036B600160B1F564
:104C2000007F31D24A09CB08012191407A680133D3
:104C30001143796007EBC30257F83310083AC5E90E
:104C4000021247F83350CD603046BDE8F840FFF718
:104C500049BFC2185268D2070ED4194407F108049C
:104C60008368A34270D0C268DA60936041F00103A8
:104C70006B606950D3E7704741F00103B1F5007FE5
:104C800044F8043C0160CDD3B1F5206F4FEA5123C5
:104C900047D28B0903F1390003F13802C300F81839
:104CA000FB580838984258D05A6822F003028A42CA
:104CB00002D99B689842F7D1D868C5E9023085606F
:104CC0003046DD60BDE8F840FFF70CBFC2185268FF
:104CD000D20763D40B44D0E90212CA60916043F05A
:104CE00001026A603046EB50BDE8F840FFF7FABEBB
:104CF0000B44D10707D454F8082CAD1A1344D5E956
:104D00000212CA60916043F001026A60274ABD60E6
:104D100012689A4298D8264B30461968FFF7FAFE77
:104D200092E7142B0AD9542B1FD80B0B03F16F00F9
:104D300003F16E02C300B2E7194491E703F15C008E
:104D400003F15B02C300AAE741F00103C7E9045580
:104D5000C5E902446B60695076E70121921001FABF
:104D600002F279680A437A60A7E7B3F5AA7F06D80A
:104D7000CB0B03F1780003F17702C3008FE740F219
:104D80005452934206D88B0C03F17D0003F17C0250
:104D9000C30084E74FF47E737E2280E741F0010375
:104DA0006B60016050E700BF000000200C04002091
:104DB000B0110020704700BF704700BFB032000044
:104DC000FFD8FFE1001845786966000049492A00CC
:104DD000080000000000000000000000FFEC0011CF
:104DE0004475636B7900010004000000460000FF79
:104DF000E1032B687474703A2F2F6E732E61646F09
:104E000062652E636F6D2F7861702F312E302F0009
:104E10003C3F787061636B657420626567696E3DC5
:104E200022EFBBBF222069643D2257354D304D70C3
:104E300043656869487A7265537A4E54637A6B6346
:104E40003964223F3E203C783A786D706D6574611C
:104E500020786D6C6E733A783D2261646F62653ABA
:104E60006E733A6D6574612F2220783A786D707494
:104E70006B3D2241646F626520584D5020436F7234
:104E80006520352E332D633031312036362E3134C6
:104E9000353636312C20323031322F30322F303609
:104EA0002D31343A35363A32372020202020202048
:104EB00020223E203C7264663A52444620786D6C53
:104EC0006E733A7264663D22687474703A2F2F775D
:104ED00077772E77332E6F72672F313939392F302C
:104EE000322F32322D7264662D73796E7461782D93
:104EF0006E7323223E203C7264663A44657363728B
:104F0000697074696F6E207264663A61626F75745D
:104F10003D222220786D6C6E733A786D703D226868
:104F20007474703A2F2F6E732E61646F62652E63F6
:104F30006F6D2F7861702F312E302F2220786D6C9D
:104F40006E733A786D704D4D3D22687474703A2FCF
:104F50002F6E732E61646F62652E636F6D2F7861A3
:104F6000702F312E302F6D6D2F2220786D6C6E7367
:104F70003A73745265663D22687474703A2F2F6ECE
:104F8000732E61646F62652E636F6D2F7861702F71
:104F9000312E302F73547970652F5265736F75728F
:104FA0006365526566232220786D703A43726561AD
:104FB000746F72546F6F6C3D2241646F6265205054
:104FC000686F746F73686F70204353362028576979
:104FD0006E646F7773292220786D704D4D3A496E5B
:104FE0007374616E636549443D22786D702E696902
:104FF000643A31333234434236333946343731310F
:105000004541383132334334433432383431373424
:1050100034332220786D704D4D3A446F63756D6561
:105020006E7449443D22786D702E6469643A313360
:1050300032344342363439463437313145413831E0
:105040003233433443343238343137343433223E0C
:10505000203C786D704D4D3A4465726976656446C2
:10506000726F6D2073745265663A696E7374616E07
:10507000636549443D22786D702E6969643A313325
:105080003234434236313946343731314541383193
:1050900032334334433432383431373434332220DA
:1050A00073745265663A646F63756D656E744944D6
:1050B0003D22786D702E6469643A31333234434254
:1050C0003632394634373131454138313233433461
:1050D00043343238343137343433222F3E203C2F9E
:1050E0007264663A4465736372697074696F6E3E88
:1050F000203C2F7264663A5244463E203C2F783A58
:10510000786D706D6574613E203C3F787061636BB3
:10511000657420656E643D2272223F3EFFEE000EF4
:1051200041646F62650064C000000001FFDB008421
:105130000004030303030304030304060403040637
:10514000070504040507080606070606080A0809F5
:10515000090909080A0A0C0C0C0C0C0A0C0C0D0DA0
:105160000C0C11111111111414141414141414141E
:1051700014010405050807080F0A0A0F140E0E0E85
:1051800014141414141414141414141414141414DF
:1051900014141414141414141414141414141414CF
:1051A00014141414141414141414141414141414BF
:1051B0001414FFC000110800C8015E0301110002B1
:1051C0001101031101FFC400C1000100010501012B
:1051D00001000000000000000000000804050607B0
:1051E00009010302010100030101010000000000A8
:1051F0000000000000000103040205061000000684
:10520000010301040406090C0F090000000001025B
:105210000304050611120721311314084151221508
:10522000618132B4763771A1425223B324C417F09E
:105230006272337435758516564709918292A2437E
:105240005363A33454D4A5B53849B1D173932545DC
:105250005526181101000103010505050607010186
:1052600000000000000111020321314151120461CC
:1052700071811333A1C1D12232F091B1425205E1C3
:1052800062722343144424F1FFDA000C030100028C
:10529000110311003F008A43EB1E70000000000064
:1052A00000000000000000000000000000000000FE
:1052B00000000000000000000000000000000000EE
:1052C00000000000000000000000000000000000DE
:1052D00000000000000000000000000000000000CE
:1052E00000000000000000000000000000000000BE
:1052F00000000000000000000000000000000000AE
:10530000000000000000000000000000000000009D
:10531000000000000000000000000000000000008D
:10532000000000000000000000000000000000007D
:10533000000000000000000000000000000000006D
:10534000000000000000000000000000000000005D
:10535000000000000000000000000000000000004D
:10536000000000000000000000000000000000003D
:10537000000000000000000000000000000000002D
:10538000000000000000000000000000000000001D
:10539000000000000000000000000000000000000D
:1053A00000000000000000000000000000000000FD
:1053B00000000000000000000000000000000000ED
:1053C00000000000000000000000000000000000DD
:1053D00000000000000000000000000000000003CA
:1053E000E8CB2F4879B8F1DB53AFBAA26DA69B2367
:1053F00052D6B51E849491753333EC2201B4E3790F
:1054000069E74975C568CE1534A2A924A243AB61EA
:10541000A91A28B52FC038EA5DF8B60CD3D4E2AD8E
:105420002AB3CBBB835958D6D8D3CE7EB2DA23D099
:105430006CA2ABBB93124B6A65E6D65F72B42C8844
:10544000C8FEC90D1131315870BF609C7798F26564
:10545000BBD438456FBD2D63C654E7A3F7F1E36DA8
:105460008EDB88694BDD21C6D27A29C416847AF591
:10547000ECED1C64C96D915B9316CCEC57647C49D0
:10548000C858965D53826414FE0F2BBCF0FEEBAF40
:10549000F1315DEFBC63EA8CCFE15A756DA773887B
:1054A000527DB5969DA7A175116E6B2EB66E89D2F1
:1054B00009B66268ADCEF83794B8CEA19BECDE8712
:1054C000DD755224A60B323C5C293BA438DADD4A58
:1054D00036C77DC516A96D67A9969D3B7B0738F336
:1054E000D97CD2D94CD931B586D0D15AE4F75031D4
:1054F000EA38FE2AE2CDE445851B7A1AEF1E70F4E5
:105500004A77B8A4A4B53F4A94442EBAE8B62B2EE5
:10551000622ADB5FFE49F307FCCFFF007955FF00ED
:10552000B58CBFEDE2E3EC959E5DDC18867DC33C57
:1055300093C61121CECE693DD5167B8A62239E2A61
:10554000249DEE213B945A4679D32D0BD6442DC78A
:105550009ACC9F4CB99B6636BF18070F723728B399
:105560003A460B4BEF566B54DB7355E2A246EED432
:10557000F128D05A4979A33D4927F2750C99ACC757
:10558000F54916CCEC7E3F449C85FA42FD15FB9F05
:10559000FF00BE7FF13E262FFAAF8DFDBBBDEE7F33
:1055A00069F6FF006CF83E57413E759C9CF5D11C96
:1055B000B35A1C81C49C85C5BEEEFE5DD3FBA7DE3D
:1055C000DDF7BBFF00298B2BBCF0BDDF7BFE8CEB36
:1055D000BB76F7A8F95A6BAF4F4863CD664FA66B01
:1055E00042EB6636B0916B96EA4F94BF304B4A5609
:1055F0005879E8A2232D6C6B127A1FAC8E51190CCE
:105600009FEDE2E3F8ACF2EEE0D30E36E32E2D97F9
:10561000526875B51A16857432524F4323FB035AEC
:10562000B55D354586416F5F4350CF88B5B492CCA8
:105630001831F721BEF2449709A6D1B96694A77232
:105640009445AA8C88BD2622E9888ACA622ADBBFD3
:10565000FE49F307FCCFFF007955FF00B58CBFED85
:10566000E2E3EC959E5DDC14573E5839CF1FA8B09D
:10567000BEB7C57C3D555C67A74E91EF0AD73BB8D6
:10568000F19B375C5ED4495295B52933D124667EAF
:10569000821D5BD56399A44FE289C7743508D2ACEB
:1056A000000000000000000000000000000001FAFF
:1056B0004216E2D2DB6935B8B324A1092D546A3E03
:1056C000844445DA6602487187934E43CD5966D7C4
:1056D0002C75388D23A44B43725B376C5C41F5E924
:1056E0001F54F77AFF009552545F7A63065EB6CB7B
:1056F000748D6575B8A676A4EE2DE4EF84F1D6D04E
:1057000073EB2464331245AC8B392E6DDDE9D1A8DF
:10571000E6CB7A7C0A498F3EFEB325DBE8BA315BE3
:105720000CFD8E11E1D8C8EEDBC0E84D245A6AE5C5
:105730006C6755FDD38851FDB1479F93F54FDEEF60
:1057400096382D571E5C783EEDB5372F09AE648C28
:105750008CB7414AE028B5F491C55363A8EA724674
:10576000F44D96CEE693CEFC8963B35B72571DDF92
:105770003F573343522BED7F2A8AA57A124EB64902
:1057800071B2F84D2E0D98FAF98FAA15CE18DC8853
:105790007C83C5B9CF17D995666754E42370CFC20F
:1057A000CC4FE1224824FA5A793AA55EB34FCA2F6A
:1057B0004910F4F1E5B72456D967BAD98DAC385AF7
:1057C000E40001267C906395973CAD3AD2C594BE27
:1057D000F51D5BB2ABD2B2D49125D79A67BCFB2939
:1057E00042D645F675F40C1D75D3165237CAEC51E6
:1057F000AA5A643CB9714FE61313E1F660467296FB
:10580000FEA5FB2953D66E78A43CDA662D048D15CF
:10581000B36FE49A191A4CCF776969D7CCB70C4E9D
:1058200029BF7C4AF9BBE6A23FF9F7C6EAE3CCC43C
:1058300032B8ED25BB69C997026B89222EF5A8DD28
:10584000D2DA3519769A7BC596A7E832F50DBD05F3
:10585000D3AC2ACD0C4BC88FD6EDD7D1C95F3E82D1
:105860002DEBFD38EFF8A30ED6C6E72A99175E7127
:1058700078AE1C623371A8955355A16BF838165356
:1058800065B9FDEB4633E09A74F778FE10EAF8F953
:10589000E192F9EEFAA2A5FA4717E633871D07A9A8
:1058A0003DDF0759B621C702FD73E0BFC330FF00DB
:1058B0001A43D4EA3D3BBB99ECFAA1D03F32BCB3CA
:1058C00091F0DE0B5F93E311614B9F2ED99AD71BAA
:1058D000B26DD759265D8D25E332265D655BB73203
:1058E0009FBAD34D7A0F13A6C3192EA4F06ABEE94E
:1058F000B6104B977CC2E69CD15D5B599441AB8856
:10590000C55BCB931D55AD48696A5B88D864B37A93
:1059100043C465A7A8887B387A7B714D62ACD75F9A
:10592000372457903FDE5CE3F7557FE2DF187F7046
:10593000DB6ADC3BD43FF506FD5FCD713FF2FDBF76
:1059400051FE43FAC0BFA3CFE3AFCC03F6FF00CDB7
:10595000E1EF336E446C2EB3DF798E3D4DB77FBCE3
:105960006CE144D9A6EDDDFC8437A68447AEBBBD0F
:1059700043D3BE696CCF6288DAEC32A63289AD5768
:1059800099978879A75F42752D7632A6D2A3D3B7AF
:10599000B5C48F97A37B90DC9956749C8D9753ED7B
:1059A00034A60DCD847411969AA1B92E25265D0BCF
:1059B000A19111974EC1F4F8A6B644F6305DB655E4
:1059C0009C39F5BB80FD23A7F9F322337A77774919
:1059D0006ED87447CCAF2CE47C3782D7E4F8C45837
:1059E00052E7CBB666B5C6EC9B75D6499763497846
:1059F000CC89975956EDCCA7EEB4D35E83C2E9B0FB
:105A0000C64BA93C1AEFBA6D85DF36B6917DE5E34A
:105A100022BC9894225D9E19366BE8688C9B4B9251
:105A20002A96E28924A3519248D5D35331CD914C83
:105A3000B11FCDEF4CFD3E0E508FA4610000000061
:105A40000000000000000000000055D656585D58C8
:105A5000C5A8A98CE4CB39AEA23C48ACA4D6E38E51
:105A6000B87B529491769998899888ACA5D1AF2F3C
:105A70009E5868B8BA246C9329699B5E417124E7EB
:105A80007AA22723D79A8BE44723E86E17629DED0D
:105A9000F42742D77785D475539348D8D7663A7799
:105AA000B31CDF9BE971D79DAAA0426DEE1B334367
:105AB000AB2569119597692965D56A23ED4A3E356D
:105AC000118E7174B376B3A438C99E2DD21A7ED7C5
:105AD00090B3AC896A3996CF30C2BB2343338CD1A3
